{
  "contractName": "SafeMath",
  "abi": [
    {
      "constant": true,
      "inputs": [
        {
          "name": "a",
          "type": "uint256"
        },
        {
          "name": "b",
          "type": "uint256"
        }
      ],
      "name": "mul",
      "outputs": [
        {
          "name": "",
          "type": "uint256"
        }
      ],
      "payable": false,
      "stateMutability": "pure",
      "type": "function"
    },
    {
      "constant": true,
      "inputs": [
        {
          "name": "a",
          "type": "uint256"
        },
        {
          "name": "b",
          "type": "uint256"
        }
      ],
      "name": "div",
      "outputs": [
        {
          "name": "",
          "type": "uint256"
        }
      ],
      "payable": false,
      "stateMutability": "pure",
      "type": "function"
    },
    {
      "constant": true,
      "inputs": [
        {
          "name": "a",
          "type": "uint256"
        },
        {
          "name": "b",
          "type": "uint256"
        }
      ],
      "name": "sub",
      "outputs": [
        {
          "name": "",
          "type": "uint256"
        }
      ],
      "payable": false,
      "stateMutability": "pure",
      "type": "function"
    },
    {
      "constant": true,
      "inputs": [
        {
          "name": "a",
          "type": "uint256"
        },
        {
          "name": "b",
          "type": "uint256"
        }
      ],
      "name": "add",
      "outputs": [
        {
          "name": "",
          "type": "uint256"
        }
      ],
      "payable": false,
      "stateMutability": "pure",
      "type": "function"
    },
    {
      "constant": true,
      "inputs": [
        {
          "name": "a",
          "type": "uint256"
        },
        {
          "name": "b",
          "type": "uint256"
        }
      ],
      "name": "mod",
      "outputs": [
        {
          "name": "",
          "type": "uint256"
        }
      ],
      "payable": false,
      "stateMutability": "pure",
      "type": "function"
    }
  ],
  "bytecode": "0x608060405234801561001057600080fd5b506102f1806100206000396000f3fe608060405234801561001057600080fd5b5060043610610074576000357c010000000000000000000000000000000000000000000000000000000090048063771602f714610079578063a391c15b146100c5578063b67d77c514610111578063c8a4ac9c1461015d578063f43f523a146101a9575b600080fd5b6100af6004803603604081101561008f57600080fd5b8101908080359060200190929190803590602001909291905050506101f5565b6040518082815260200191505060405180910390f35b6100fb600480360360408110156100db57600080fd5b810190808035906020019092919080359060200190929190505050610216565b6040518082815260200191505060405180910390f35b6101476004803603604081101561012757600080fd5b810190808035906020019092919080359060200190929190505050610240565b6040518082815260200191505060405180910390f35b6101936004803603604081101561017357600080fd5b810190808035906020019092919080359060200190929190505050610262565b6040518082815260200191505060405180910390f35b6101df600480360360408110156101bf57600080fd5b8101908080359060200190929190803590602001909291905050506102a0565b6040518082815260200191505060405180910390f35b600080828401905083811015151561020c57600080fd5b8091505092915050565b6000808211151561022657600080fd5b6000828481151561023357fe5b0490508091505092915050565b600082821115151561025157600080fd5b600082840390508091505092915050565b600080831415610275576000905061029a565b6000828402905082848281151561028857fe5b0414151561029557600080fd5b809150505b92915050565b60008082141515156102b157600080fd5b81838115156102bc57fe5b0690509291505056fea165627a7a723058202a53e4ffae5b528d6d458f3f7315e3c28a7fa14def795836d4809562ee8969590029",
  "source": "pragma solidity ^0.5.2;\n\n//EVM package implementation of openzeppelin-solidity SafeMath Library.\n//https://github.com/OpenZeppelin/openzeppelin-solidity\n//EVM package version by Dennison Bertram. \n\n/**\n * @title SafeMath\n * @dev Unsigned math operations with safety checks that revert on error\n */\ncontract SafeMath {\n    /**\n     * @dev Multiplies two unsigned integers, reverts on overflow.\n     */\n    function mul(uint256 a, uint256 b) external pure returns (uint256) {\n        // Gas optimization: this is cheaper than requiring 'a' not being zero, but the\n        // benefit is lost if 'b' is also tested.\n        // See: https://github.com/OpenZeppelin/openzeppelin-solidity/pull/522\n        if (a == 0) {\n            return 0;\n        }\n\n        uint256 c = a * b;\n        require(c / a == b);\n\n        return c;\n    }\n\n    /**\n     * @dev Integer division of two unsigned integers truncating the quotient, reverts on division by zero.\n     */\n    function div(uint256 a, uint256 b) external pure returns (uint256) {\n        // Solidity only automatically asserts when dividing by 0\n        require(b > 0);\n        uint256 c = a / b;\n        // assert(a == b * c + a % b); // There is no case in which this doesn't hold\n\n        return c;\n    }\n\n    /**\n     * @dev Subtracts two unsigned integers, reverts on overflow (i.e. if subtrahend is greater than minuend).\n     */\n    function sub(uint256 a, uint256 b) external pure returns (uint256) {\n        require(b <= a);\n        uint256 c = a - b;\n\n        return c;\n    }\n\n    /**\n     * @dev Adds two unsigned integers, reverts on overflow.\n     */\n    function add(uint256 a, uint256 b) external pure returns (uint256) {\n        uint256 c = a + b;\n        require(c >= a);\n\n        return c;\n    }\n\n    /**\n     * @dev Divides two unsigned integers and returns the remainder (unsigned integer modulo),\n     * reverts when dividing by zero.\n     */\n    function mod(uint256 a, uint256 b) external pure returns (uint256) {\n        require(b != 0);\n        return a % b;\n    }\n}",
  "sourcePath": "/Users/dennisonzeppelin/Documents/zos-test-framework/zos-SafeMath/contracts/SafeMath.sol",
  "compiler": {
    "name": "solc",
    "version": "0.5.2+commit.1df8f40c.Emscripten.clang"
  },
  "schemaVersion": "3.0.1",
  "updatedAt": "2019-02-15T22:04:27.496Z",
  "devdoc": {
    "details": "Unsigned math operations with safety checks that revert on error",
    "methods": {
      "add(uint256,uint256)": {
        "details": "Adds two unsigned integers, reverts on overflow."
      },
      "div(uint256,uint256)": {
        "details": "Integer division of two unsigned integers truncating the quotient, reverts on division by zero."
      },
      "mod(uint256,uint256)": {
        "details": "Divides two unsigned integers and returns the remainder (unsigned integer modulo), reverts when dividing by zero."
      },
      "mul(uint256,uint256)": {
        "details": "Multiplies two unsigned integers, reverts on overflow."
      },
      "sub(uint256,uint256)": {
        "details": "Subtracts two unsigned integers, reverts on overflow (i.e. if subtrahend is greater than minuend)."
      }
    },
    "title": "SafeMath"
  },
  "userdoc": {
    "methods": {}
  }
}